:100000000C9440070C9487070C9487070C9487077F
:100010000C9487070C9487070C9487070C94870728
:100020000C9487070C9487070C9461240C941D246E
:100030000C94472B0C9487070C9487070C94870724
:100040000C9487070C9487070C9487070C948707F8
:100050000C9487070C94232B0C9487070C94870728
:100060000C9487070C9487070C9487070C948707D8
:100070000C9487070C9487070C9487070C948707C8
:100080000C9487070C9487070C9487070C948707B8
:100090000C9487070C9487070C9487070C948707A8
:1000A0000C9487070C9487070C94870705010902B5
:1000B000A10185020901A1000509190129081500FE
:1000C0002501950875018102050109300931158165
:1000D000257F95027508810609381581257F9501D0
:1000E00075088106050C0A38021581257F95017572
:1000F000088106C0C005010980A101850319012AF4
:10010000B700150126B700950175108100C0050CD8
:100110000901A101850419012AA002150126A002E6
:10012000950175108100C005010906A1018505052D
:100130000719E029E71500250195087501810205D9
:1001400007190029EF1500250195F07501810205B9
:10015000081901290595057501910295017503910D
:1001600001C00660FF0961A1010962150026FF00B8
:100170009520750881020963150026FF00952075FA
:10018000089102C005010906A101050719E029E748
:1001900015002501950875018102950175088101F9
:1001A0000507190029FF150026FF0095067508812F
:1001B000000508190129059505750191029501753C
:1001C000039101C0000101010101010101010202CD
:1001D00002020202020202030303030303030304F5
:1001E00004040404040405050505050606060606C0
:1001F000070707070708080808090909090A0A0A7A
:100200000B0B0B0C0C0C0D0D0D0E0E0E0F0F0F101B
:1002100010111111121213131414151516161717A5
:10022000181819191A1A1B1B1C1D1D1E1E1F202011
:10023000212222232424252626272829292A2B2C5B
:100240002D2D2E2F30313232333435363738393A7E
:100250003B3C3D3E3F404142434445464748494A76
:100260004C4D4E4F50515354555658595A5B5D5E44
:100270005F616264656668696B6C6D6F70727375DF
:1002800077787A7B7D7E8082838587888A8C8E8F43
:1002900091939596989A9C9EA0A2A3A5A7A9ABAD71
:1002A000AFB1B3B5B7BABCBEC0C2C4C6C9CBCDCF5F
:1002B000D1D4D6D8DBDDDFE2E4E7E9EBEEF0F3F50D
:1002C000F8FAFDFFFFAA7F55402223252628292A78
:1002D0002C2D2F3032333536383A3B3D3E404243A9
:1002E0004547494A4C4E5051535557595A5C5E60E8
:1002F00062646668696B6D6F71737577797B7D7FFA
:1003000081838587898A8C8E90929496989A9C9EF8
:100310009FA1A3A5A7A8AAACAEAFB1B3B4B6B8B914
:10032000BBBCBEBFC1C2C3C5C6C7C9CACBCCCDCE7C
:10033000D0D1D2D2D3D4D5D6D7D7D8D9D9DADADB5F
:10034000DBDBDCDCDCDCDCDDDDDDDDDCDCDCDCDCEB
:10035000DBDBDBDADAD9D9D8D7D7D6D5D4D3D2D22A
:10036000D1D0CECDCCCBCAC9C7C6C5C3C2C1BFBE12
:10037000BCBBB9B8B6B4B3B1AFAEACAAA8A7A5A37D
:10038000A19F9E9C9A98969492908E8C8A8987853C
:1003900083817F7D7B79777573716F6D6B6968661B
:1003A0006462605E5C5A5957555351504E4C4A49ED
:1003B00047454342403E3D3B3A3836353332302F95
:1003C0002D2C2A29282625232229001E001F002043
:1003D0000021002200230024002500260027002DF4
:1003E000002E0035002A002B00000014001A00081F
:1003F00000150017001C0018000C00120013002F3D
:100400000030003100390000000400160007000928
:10041000000A000B000D000E000F0033003400280E
:100420000000000000E1001D001B0006001900058F
:100430000011001000360037003800000052004C58
:1004400000E0000000E300E2000000000000002CDB
:10045000000000000000005041000051424F0035F4
:10046000003A003B003C003D003E003F00400041A0
:1004700000420043004400450001004C0001000020
:100480000001000100010001000100460047004892
:100490000049004A004B000100010001000000017A
:1004A0000001000100010001000100010001004CF9
:1004B000004D004E0001000000000001000100019D
:1004C0000001000100010001000100010001000124
:1004D0000000000100010001000000010001000017
:1004E000000000000001000000000000000100000A
:1004F00000010001000100010001000100010001F4
:1005000000010001000100010001000100010001E3
:1005100000010001000000010001000100010001D4
:1005200000010001000100010001000100010001C3
:100530000001000000C25CCD5CCE5CCF5CD05CD121
:100540005CD25CD35CD45CD55C010001000000008F
:10055000000100C35CC55CC65CC75CC85CC95CCA02
:100560005C010001000100000001000100005C00CE
:100570000001000100000000000000010000000078
:100580000000000100000001000100010001000165
:100590000001000100010001000100010001000153
:1005A0000001000100010001000100000001000144
:1005B0000001000100010001000100010001000133
:1005C0000001000100010001000000010001000124
:1005D0000001000100010001000100010001000113
:1005E0000001000000000001000100010001000105
:1005F00000010001000100010001000100000001F4
:1006000000010001000000010001000000000000E6
:1006100000010000000000000001000000010001D6
:1006200000010001000100010001000100010001C2
:1006300000010001000100010001000100010001B2
:1006400000000001000100010001000100010001A3
:100650000001000100010001000100010001000093
:100660000001000100010001000100010001000182
:100670000001000100010001000000000001000174
:100680000001000100010001000100010001000162
:100690000001000000010001000100000001000154
:1006A0000000000000000001000000000000000148
:1006B0000000000100010001000100010001000133
:1006C0000001000100010001000100010001000122
:1006D0000001000100010000000100010001000113
:1006E0000001000100010001000100010001000102
:1006F00000010001000000010001000100010001F3
:1007000000010001000100010001000100010000E2
:1007100000000001000100010001000100010001D2
:1007200000010001000100010000000100010001C2
:1007300000000001000100000000000000010000B6
:1007400000000000000100000001000100010001A4
:100750000001000100010001000100010001000191
:100760000001000100010001000100010000000182
:100770000001000100010001000100010001000171
:100780000001000100010001000100000001000162
:100790000001000100010001000100010001000151
:1007A0000001000100000000000100010001000143
:1007B0000001000100010001000100010001000032
:1007C0000001000100010000000100010000000024
:1007D0000000000100000000000000010000000116
:1007E0000001000100010001000100010001000101
:1007F00000010001000100010001000100010001F1
:1008000000010000000100010001000100010001E1
:1008100000010001000100010001000100010001D0
:1008200000000001000100010001000100010001C1
:1008300000010001000100010001000000000001B2
:1008400000010001000100010001000100010001A0
:100850000001000100000001000100010000000192
:100860000001000000000000000100000000000086
:100870000001000000010001000100010001000171
:100880000001000100010001000100010001000160
:100890000001000100010001000000010001000151
:1008A0000001000100010001000100010001000140
:1008B0000001000100010000000100010001000131
:1008C0000001000100010001000100010001000120
:1008D0000000000000010001000100010001000112
:1008E0000001000100010001000100000001000101
:1008F00000010000000100010000000000000001F4
:1009000000000000000000010000000100010001E3
:1009100000010001000100010001000100010001CF
:1009200000010001000100010001000100010000C0
:1009300000010001000100010001000100010001AF
:1009400000010001000100010001000100000001A0
:10095000000100010001000100010001000100018F
:100960000001000100010000000000010001000181
:10097000000100010001000100010001000100016F
:100980000000000100010001000000010001000062
:100990000000000000010000000000000001000055
:1009A000000100010001000100010001000100013F
:1009B000000100010001000100010001000100012F
:1009C0000001000100000001000100010001000120
:1009D000000100010001000100010001000100010F
:1009E0000001000000010001000100010001000100
:1009F00000010001000100010001000100000000F1
:100A000000010001000100010001000100010001DE
:100A100000010001000100000001000100010000D0
:100A200000010001000000000000000100000000C3
:100A300000000001000000010001000100010001B0
:100A4000000100010001000100010001000100019E
:100A5000000100010001000100010000000100018F
:100A6000000100010001000100010001000100017E
:100A7000000100010001000100000001000100016F
:100A8000000100010001000100010001000100015E
:100A90000001000000000001000100010001000150
:100AA000000100010001000100010001000000013F
:100AB0000001000100000001000100000000000032
:100AC0000001000000000000000100000001000122
:100AD000000100010001000100010001000100010E
:100AE00000010001000100010001000100010001FE
:100AF00000000001000100010001000100010001EF
:100B000000010001000100010001000100010000DE
:100B100000010001000100010001000100010001CD
:100B200000010001000100010000000000010001BF
:100B300000010001000100010001000100010001AD
:100B4000000100000001000100010000000100019F
:100B50000000000000000001000000000000000193
:100B6000000000010001000100010001000100017E
:100B7000000100010001000100010001000100016D
:100B8000000100010001000000010001000100015E
:100B9000000100010001000100010001000100014D
:100BA000000100010000000100010001000100013E
:100BB000000100010001000100010001000100002E
:100BC000000000010001000100010001000100011E
:100BD000000100010001000100000001000100010E
:100BE0000000000100010000000000000001000002
:100BF00000000000000100000001000100010001F0
:100C000000010001000100010001000100010001DC
:100C100000010001000100010001000100000001CD
:100C200000010001000100010001000100010001BC
:100C300000010001000100010001000000010001AD
:100C4000000100010001000100010001000100019C
:100C5000000100010000000000010001000100018E
:100C6000000100010001000100010001000100007D
:100C7000000100010001000000010001000000006F
:100C80000000000100000000000000010000000161
:100C9000000100010001000100010001000100014C
:100CA000000100010001000100010001000100013C
:100CB000000100000001000100010001000100012D
:100CC000000100010001000100010001000100011C
:100CD000000000010001000100010001000100010D
:100CE00000010001000100010001000000000001FE
:100CF00000010001000100010001000100010001EC
:100D000000010001000000010001000100000001DD
:100D100000010000000000000001000000000000D1
:100D200000010000000100010000000000000000C0
:100D300000000000000000000000000000000000B3
:100D4000000000000000000000000000007E0F0016
:100D5000D4FFFFFFC7000000780000000000000083
:100D6000002A2B2800000000000000000000000006
:100D70000000000029000000002C1E342021222445
:100D8000342627252E362D3738271E1F20212223D3
:100D90002425263333362E37381F04050607080965
:100DA0000A0B0C0D0E0F101112131415161718192B
:100DB0001A1B1C1D2F3130232D3504050607080989
:100DC0000A0B0C0D0E0F101112131415161718190B
:100DD0001A1B1C1D2F3130354C1E0F0500047F3FA0
:100DE0001F643214643214783C1E1E140A05090272
:100DF0005B00030100A0FA090400000103010100E7
:100E00000921110100012240000705810308000AA1
:100E10000904010002030000000921110100012260
:100E200022000705820320000107050303200001BB
:100E30000904020001030000000921110100012240
:100E4000B6000705840320000A120110010000000B
:100E50000800620110010001020001160336003291
:100E6000005300740061006E006400610072006451
:100E7000000000060363007A000000040309040078
:100E800011241FBECFEFDAE0DEBFCDBF04B603FEF4
:100E900027C08091280590912905A0912A05B0913D
:100EA0002B058730904BA740B04BD1F4109228050A
:100EB0001092290510922A0510922B0514BE84B7B2
:100EC000877F84BF0FB6F894A895809160008861F1
:100ED00080936000109260000FBEE0E0F8E3099597
:100EE00025E0ACE9B1E001C01D92A832B207E1F7FC
:100EF00011E0A0E0B1E0EAE5FAE502C005900D924C
:100F0000AC39B107D9F70E9438250C94E02C0C9429
:100F10000000E8EDF0E080818E7F80831092E20097
:100F20001092DA001092E100A0EEB0E08C918160A6
:100F30008C9380818F77808319BCA7EDB0E08C9172
:100F40008E7F8C9380818F7E80831092F20408952F
:100F50002091E4003091E50095E6A9012091EC0094
:100F6000822F817020FF06C08091E80080FF06C0BC
:100F700080E008952091E80022FD1AC080911705B5
:100F8000882389F0853089F08091EB0085FD0FC0C2
:100F90002091E4003091E50042175307F9F2915097
:100FA000E1F684E0089582E0089583E0089581E009
:100FB0000895EF92FF920F931F93CF937C018B01C3
:100FC0000E94A807C82F811117C08091E80085FDF5
:100FD0000BC08091E8008E778093E8000E94A807FC
:100FE000882399F3C82F08C0F70181917F0180936E
:100FF000F1000150110949F78C2FCF911F910F91EA
:10100000FF90EF9008958091190587FF13C080919C
:10101000E80082FF06C08091E8008B778093E800AB
:1010200004C0809117058111F2CF089580911705B2
:101030008823D9F38091E80080FFF8CF8091E80001
:101040008E77ECCF982F9093E900242F762F50E0E5
:10105000891731F07091EC002091ED005091F00073
:1010600021FD07C09F5F973071F78093E90081E011
:1010700008953091EB003E7F3093EB003091ED000E
:101080003D7F3093ED003091EB0031603093EB0009
:101090007093EC002093ED005093F0002091EE004F
:1010A00027FDE0CF80E00895CF92DF92EF92FF928C
:1010B0000F931F93CF93DF93C8EDD0E088818F7E8D
:1010C0008883E7EDF0E080818160808384E082BFE7
:1010D00081E08093F20488818E7F888302EE10E0A5
:1010E000F80110821092DA0081EEC82ED12CF601A0
:1010F000108288818F77888388818068888388813F
:101100008F7D888319BC10921705109218051092D4
:1011100016051092150590EEE92EF12CF70180814D
:101120008B7F808388818160888342E060E080E0FB
:101130000E942208F60180818E7F8083F8018081E1
:1011400081608083808188608083F70180818E7FC9
:101150008083888180618883DF91CF911F910F9177
:10116000FF90EF90DF90CF900895FC0180911F05D4
:101170009091200586179707A0F06115710529F455
:101180009091E8009E779093E80090E061157105DA
:1011900051F4911108C08091E80082FF34C080E0D2
:1011A0000895BC01F2CF809117058823C1F18530E5
:1011B000C1F18091E80083FD30C08091E80082FD9C
:1011C000EACF8091E80080FFE1CF8091F300209189
:1011D000F200382F6115710519F02830310558F0EB
:1011E00091E02830310509F090E02091E8002E7759
:1011F0002093E800CBCF81918093F1006150710979
:101200002F5F3F4FE7CF80911705882341F085304E
:1012100041F08091E80083FFBECF81E0089582E035
:10122000089583E00895089580E008958091F4047E
:1012300008959C014FB7F8948091EE049091EF04CB
:10124000A091F004B091F1044FBF821B930B08955D
:101250002FB7F8948091EE049091EF04A091F004E0
:10126000B091F1042FBF08958091A80481111092CC
:10127000A80408958091A7049091A604892B9091C9
:10128000A504892B80939E019091A8049923A1F035
:10129000892B80939E0180911C01882341F18091CC
:1012A000B70487FF24C08EE1E0EAF1E090E08150CE
:1012B00000F591110E943409E091BA04F091BB0449
:1012C0003097E1F080911C01882359F08091B70498
:1012D00087FF07C080919E0180939F0185E08093E6
:1012E0009E010280F381E02D8EE991E0099486E071
:1012F000DBCF21912223D9F29F5FD9CF089590911E
:101300001C019923D1F09091B70497FF16C0E82FE4
:10131000E695E695E695EE31E0F4F0E0E256FE4F14
:10132000282F277081E090E001C0880F2A95EAF706
:1013300080959281892382830895E0EAF1E091917A
:10134000891303C0DF0111971C9291E0E63AF90777
:10135000B1F7089590911C019923C1F09091B704C1
:1013600097FF14C0E82FE695E695E695EE31F8F480
:10137000F0E0E256FE4F877021E030E001C0220F1E
:101380008A95EAF78281822B82830895A0EAB1E0F0
:10139000EFEF90E02D91821751F0EF3F19F42111FA
:1013A00001C0E92F9F5F9630A9F7EF3F09F4089538
:1013B0000E2E000CFF0BE256FE4FE6CF2FE0929F61
:1013C000800D1124982F977086958695869525E037
:1013D000829FF0011124EE58FB4F50E040E080E086
:1013E000219130E0092E02C0369527950A94E2F744
:1013F00021703327042E01C0220F0A94EAF7822BB2
:101400004F5F5F4F4530510559F708952FE0929F88
:10141000800D1124982F977041E001C0440F9A95D8
:10142000EAF786958695869595E0899FF0011124C7
:10143000EE58FB4F90E080E070E05191DF01119792
:101440009B01082E02C0369527950A94E2F7217079
:1014500021952527242325272C9301968530910556
:1014600061F708958091710490914004981301C030
:1014700008958F5F8770FACF882341F0809590910F
:10148000A70489238093A7040C943A09089588231C
:1014900039F09091A704982B9093A7040C943A09E3
:1014A000089520913604309137042817390771F0D8
:1014B0009093370480933604E091BA04F091BB0412
:1014C000309721F00084F185E02D09940895209152
:1014D0003404309135042817390771F0909335049E
:1014E00080933404E091BA04F091BB04309721F06A
:1014F0000680F781E02D09940895E091BA04F091F7
:10150000BB04309721F00190F081E02D099480E038
:101510000895FA01811101C0FB0109948091DF0453
:10152000982F9E7F61F4817082608093DF048091A8
:10153000E204853618F084E68093E2040895863547
:10154000B0F381708465F1CFAF92BF92DF92EF92DA
:10155000FF920F931F93CF93DF93182F062FE9016C
:10156000453608F044E6E42FF0E0EC53FE4F01115D
:1015700010C0E4915E2F4E2F4983E8835A83DF9198
:10158000CF911F910F91FF90EF90DF90BF90AF90A0
:101590000895202F30E04491D42EE42EF12C56E013
:1015A000159FC0011124EFEFF0E0BF010E94882BCE
:1015B000812F90E0880F991F55E5569FD001579FC6
:1015C000B00D11248A1B9B0B982F990F890F5F0177
:1015D000A21AB30AAE9CD001AF9CB00DBE9CB00D58
:1015E00011245B2F089F80011124012F11275F0117
:1015F000A01AB10AAE9C8001AF9C100DBE9C100DCC
:1016000011245F01A81AB108A29EC001A39E900DEB
:10161000B29E900D1124892F9927E81BF90BEE9D9E
:10162000C001EF9D900DFE9D900D1124E92F6230B9
:101630007105A1F050F46115710509F49DCF613079
:10164000710581F0EB2F512F97CF6430710569F050
:1016500080F06630710509F48FCFF4CFE42F4B2F63
:10166000592F8ACFE42F412F87CFEB2F542F492FAB
:1016700083CF4B2F5D2DE12F7FCF0E9428099C0146
:101680009091CD048091CE04982B21F03093CA0420
:101690002093C9049091CF048091D004982B21F01D
:1016A0003093C7042093C604E091BA04F091BB04C0
:1016B000309749F082E08093CB040480F581E02DDF
:1016C0008BEC94E00994089590E080E00E94670A12
:1016D00090E080E00E94510A1092A6041092A504A6
:1016E0000E943A0986E0EBECF4E0DF011D928A9556
:1016F000E9F71092C8041092C504109239040C94B2
:101700003D0B6093240570932505809326059093E7
:1017100027050C94640B0F931F936091240570911F
:10172000250580912605909127058B019C01067067
:10173000112722273327063011052105310529F409
:1017400068601F910F910C94810B677FFACF0F9304
:101750001F9341E050E060E070E004C0440F551F6B
:10176000661F771F8A95D2F7CB01BA0160957095F5
:1017700080959095009124051091250520912605CE
:101780003091270560237123822393231F910F91AA
:101790000C94810B9091A404809589238093A404D8
:1017A000282F277071F4282F082E000C330B921766
:1017B000130639F08595859585950E94A70B1092A3
:1017C000A40408950F931F9341E050E060E070E09F
:1017D00004C0440F551F661F771F8A95D2F780916A
:1017E000240590912505A0912605B09127058A0131
:1017F0009B01082B192B2A2B3B2BC901B8011F91E8
:101800000F910C94810B6093A9047093AA048093A8
:10181000AB049093AC040C94640B4091CD04803FD6
:1018200059F48091CE0487FF0DC01092CE0441116F
:101830000BC01092C80408C0813F81F48091CE048F
:1018400018169CF3442381F08091CF049091D0042A
:10185000892B09F05AC01092C5040895823F49F4BB
:1018600047FFF0CF1092CD048091CE048111ECCFD0
:10187000E0CF833F19F41416ACF3E4CF9091CF047A
:10188000893F29F41916F4F61092CF04DBCF8A3F72
:1018900019F497FFD7CFF8CF9091D0048B3F29F45C
:1018A00097FFD0CF1092D004CDCF8C3F19F41916EA
:1018B000CCF3C8CF9CE0980F953090F4845F990BDF
:1018C00021E030E0B90102C0660F771F8A95E2F788
:1018D000CB0180959091CC0489238093CC04B2CF26
:1018E0008D3F31F4809139048E7F80933904AACFE3
:1018F0008E3F21F4809139048D7FF7CF8F3F09F01F
:10190000A1CF809139048B7FF0CF0895882309F40B
:1019100059C0823871F40E947D0A81FF53C089E367
:101920000E94AA090E943A0989E30E947F090C9447
:101930003A09833859F40E947D0A80FF43C083E549
:101940000E94AA090E943A0983E5EFCF843859F42E
:101950000E947D0A82FF36C087E40E94AA090E9485
:101960003A0987E4E2CF9CEF980F913AF0F290E2C7
:10197000980F983088F4877021E030E0A90102C008
:10198000440F551F8A95E2F7CA0180959091A704EC
:1019900089238093A704CBCF9BE5980F933020F445
:1019A00090E080E00C94670A98E5980F973120F456
:1019B00090E080E00C94510A803F20F00E940D0CD2
:1019C0000C943D0B08958091390480FD16C081FD73
:1019D00016C082FD16C08091C5048823A1F088320C
:1019E00080F428E0829FC001112468E270E00E9428
:1019F0009C2B862F672B39F0089582E0089584E0B0
:101A0000089588E0089581E008958091390480FD6B
:101A100014C081FD14C082FD16C08091C8048823C3
:101A200081F0843180F422E3829FC001112464E1BB
:101A300070E00E949C2B862F08958CE0089589E128
:101A4000089585E0089582E30895803F31F40E946F
:101A5000050D81958093CE040895813F19F40E946D
:101A6000050DF8CF823F31F40E94050D81958093DA
:101A7000CD040895833F19F40E94050DF8CF893FE6
:101A800029F40E94E30C8093CF0408958A3F21F447
:101A90000E94E30C8195F7CF8B3F31F40E94E30C59
:101AA00081958093D00408958C3F19F40E94E30C33
:101AB000F8CF9CE0980F953070F4845F990B21E08B
:101AC00030E001C0220F8A95EAF78091CC04822B86
:101AD0008093CC0408958D3F31F480913904816066
:101AE0008093390408958E3F21F4809139048260F7
:101AF000F7CF8F3FB9F7809139048460F1CFF89424
:101B0000E82FE295EF70F0E031A1282F2F7081E0EF
:101B100090E001C0880F2A95EAF7982F90959323BB
:101B200091A392A1892B82A3789408959091B704F0
:101B300092FF06C0282F28712830F9F4877F84602F
:101B400093FF06C0282F28712831F1F4877E846125
:101B50002091B80420FF06C0382F38713830D9F4EE
:101B6000877F816021FF06C0282F28712831D1F49A
:101B7000877E816194FD877E0895282F247124300B
:101B8000F9F68B7F8860DCCF282F2471243101F790
:101B90008B7E8861DDCF382F3171313019F78E7F20
:101BA0008860E0CF282F2171213121F78E7E886156
:101BB000E1CF81FF03C0209A289808952098FCCF98
:101BC000CF9384E090E00E94352CC82F81E290E012
:101BD0000E94352C982F8C2FCF9108950F931F932F
:101BE000CF93DF93C42FD0E0CC0FDD1F2EE1629F97
:101BF000C00DD11D112436E9839FC00DD11D1124C4
:101C0000CE0186960E94352C082F10E0102F002759
:101C1000CE0187960E94352C9801282BC901DF91AF
:101C2000CF911F910F910895462F843038F475306D
:101C300028F46F3018F4672F0C94EE0D90E080E0DC
:101C40000895CF93DF930E94140EEC018238910522
:101C5000A9F1D8F58133910509F496C048F5893288
:101C6000910509F48AC08A9709F495C0C11521E548
:101C7000D20708F0BCC0C11530E5D30708F014C185
:101C8000C83ED10508F09CC0C03ED10560F5C83AF9
:101C9000D10508F087C0C53AD10508F0FDC0C130B4
:101CA000D10509F12097F9F0C430D105E0F440C026
:101CB0008533910509F45AC0C997C1F68091B704DC
:101CC000837089F0C0EED0E00EC0833E910599F19B
:101CD00070F4803E910501F1823E910539F68091C4
:101CE000B70482FD21C0CE01DF91CF910895863ED9
:101CF000910561F1873E910571F1843E910509F0EE
:101D0000B5CF8091B80481FFEECF8091B704C7EEC4
:101D1000D0E084FD0DC0E7CF8091B70480FD12C1F3
:101D20009091B80490FFDFCFC3EED0E084FFDBCF0B
:101D3000D0E0C0E0D8CF8091B70482FD06C1909179
:101D4000B80490FDBFCF84FFCECFF2CF8091B7040F
:101D500083FDDDCFC8CF8091B70483FDF9C090919A
:101D6000B80491FFF0CFC4EED0E0BDCF8091B704AE
:101D700085FFB9CFC9E2D0E0B6CF8091B70485FF27
:101D8000B2CFC5E3D0E0AFCF8091B70486FFABCF31
:101D9000CAE2D0E0A8CF8091B70486FFA4CFC1E308
:101DA000D0E0A1CFCF3BD10518F6C85AD0E0CC0F78
:101DB000DD1FC55BDE4F0990D881C02DD46493CF61
:101DC000C11540E2D40758F4C11581E0D80708F0E6
:101DD0008ACFC03FD10508F4ABCFD06584CFC11501
:101DE00090E4D90708F4A4CFDF70D06A7CCFC11586
:101DF00025E5D20700F5C11534E5D30708F08AC000
:101E0000C11543E5D40708F071C0C11582E5D807B4
:101E100008F467C0CE018370992721E030E002C04A
:101E2000220F331F8A95E2F7C695C69580E2C89FB8
:101E3000E001112452C0C11599E5D907A8F4C115D4
:101E400028E5D20708F06BC0C11536E5D30708F0C6
:101E50006FCF8C2F0E94960DC82FD0E0DC2FCC279F
:101E6000CC27DF71D0623FCFC1154AE5D40708F413
:101E70005BC0CE0190568115904208F059CF8D2F4E
:101E80008F710E94960D90E0982F882788279F7168
:101E90009C012C2BE901E6CFC55AD0E0C85BDE4F90
:101EA000C881D0E0D0641FCFCE01E4E0969587953D
:101EB000EA95E1F783702C2F26952695237040E252
:101EC000249F90011124382B8C2F8370C1E0D0E027
:101ED00002C0CC0FDD1F8A95E2F7C22BD32BDC6842
:101EE00002CFDC2FCC27C16FD06AFDCECE0183702C
:101EF000992721E030E002C0220F331F8A95E2F7D4
:101F0000C695C69590E2C99FE0011124C22BD32B40
:101F1000DA68E9CEDC2FCC27C46FD06AE4CEDC2FA0
:101F2000CC27C06FD06ADFCE8C2F8F700E94960DA9
:101F300034E0D695C7953A95E1F7CF709C2FEC0128
:101F4000D069D1CEC9E3D0E0CECEC2EED0E0CBCEC8
:101F5000C6EED0E0C8CEBF92CF92DF92EF92FF9252
:101F60000F931F93CF93DF938C01C0902405D090E3
:101F70002505E0902605F09027058091A904909111
:101F8000AA04A091AB04B091AC04C82AD92AEA2AC9
:101F9000FB2ACFE1D0E0BC2ED701C6010C2E04C035
:101FA000B695A795979587950A94D2F780FD0EC0B0
:101FB000219788F7B12C8B2DDF91CF911F910F9135
:101FC000FF90EF90DF90CF90BF900895B8018C2FD5
:101FD0000E94210E019761F3EECFCF93DF93EC01C6
:101FE0000E94AB0FBE01DF91CF910C94210E0E9495
:101FF000ED0F292F2F7092959F7092509E3078F49C
:10200000E92FF0E0EE51F34D0C94B02B803F19F026
:1020100020F4883E20F481E00895843FE1F380E0DD
:102020000895883EC0F3813FD1F7F5CF822F869582
:102030008695869508956F927F928F929F92AF9228
:10204000BF92CF92DF92EF92FF920F931F93CF93A5
:10205000DF9389ECC82E83E0D82E9AEDE92EF12C7F
:10206000E701C659D10936011BC0F501859094904E
:10207000692DC8010E94492C682DC80101960E9453
:10208000492C82E0A80EB11C0E5F1F4FC017D1076C
:1020900061F78EE1680E711C6E96CE15DF0529F092
:1020A0008E010E5111095301E0CF7E0186E9E80E41
:1020B000F11C86E9C80ED11C82E3E81683E0F8061D
:1020C00079F6DF91CF911F910F91FF90EF90DF9004
:1020D000CF90BF90AF909F908F907F906F9008951A
:1020E000CF93DF93CEE7D2E060E0CE010E94492C8F
:1020F0002196C11584E0D807B9F7DF91CF910895F3
:10210000CF93DF9300D00F92CDB7DEB79091170534
:10211000943011F589837B836A839093E9008FEF74
:102120009091E800815095FD06C095ED9A95F1F7E4
:1021300000008111F5CF8091E80085FF0DC050E0CF
:1021400040E063E070E0CE0101960E94D9078091E3
:10215000E8008E778093E8000F900F900F90DF914A
:10216000CF910895BC0184E00C948010BC0183E001
:102170000C9480109C0184E08093E9009FEF809193
:10218000E800915085FD06C085ED8A95F1F70000C5
:102190009111F5CF8091E80085FF0CC050E040E040
:1021A00066E070E0C9010E94D9078091E8008E774F
:1021B0008093E8000895CF93DF93EC0180911C0198
:1021C0008823B1F18091B70487FF32C060E284E0D8
:1021D0008093E9008FEF9091E800815095FD06C053
:1021E00095ED9A95F1F700008111F5CF8091E80007
:1021F00085FF1BC080911C0170E050E040E0811120
:1022000004C050E040E068E070E0CE010E94D907D1
:102210008091E8008E778093E80080E2FE01A5EFD0
:10222000B4E001900D928A95E1F7DF91CF91089586
:1022300068E081E0CDCF81E08093E00080E2809390
:10224000D8001092C9008FE19EE40197F1F700C019
:10225000000087E090EBDC0180932805909329052E
:10226000A0932A05B0932B0588E19CE00FB6F89463
:10227000A895809360000FBE90936000FFCFCF932E
:10228000C82F882309F4AEC08238C1F40E947D0AA9
:1022900081FDA8C089E30E94AA090E943A092FEF94
:1022A00081EE94E0215080409040E1F700C00000B2
:1022B00089E30E947F09CF910C943A098338A1F4F5
:1022C0000E947D0A80FD8EC083E50E94AA090E94BB
:1022D0003A092FEF81EE94E0215080409040E1F7E1
:1022E00000C0000083E5E5CF8438A1F40E947D0A98
:1022F00082FD78C087E40E94AA090E943A092FEF64
:1023000081EE94E0215080409040E1F700C0000051
:1023100087E4CFCF8CEF8C0F813A88F580911C0138
:10232000882301F18091B70487FF1CC0EC2FE6954C
:10233000E695E695F0E0E256FE4F828190E04C2F64
:10234000477021E030E002C0220F331F4A95E2F7C8
:1023500082239323892B79F08C2F0E947F090E947E
:102360003A0909C0E0EAF1E08191C817A9F321E038
:10237000E63AF207C9F78C2F0E94AA099CCF80E2A7
:102380008C0F883068F4C77021E030E001C0220F64
:10239000CA95EAF78091A704822B8093A7048BCF7C
:1023A000EBE5EC0FE33040F4F0E0E85BFE4F8081BA
:1023B00090E0CF910C94670AE8E5EC0FE73150F418
:1023C000F0E0EE0FFF1FE55BFE4F80819181CF9122
:1023D0000C94510AC03F30F08C2F0E94250DCF91F4
:1023E0000C943D0BCF9108951F93CF93DF93182F3B
:1023F000D0E0C0E0893311F4C0E5D0E0812F0E9425
:102400003F11209731F4812FDF91CF911F910C94D0
:10241000860C8FE99FE00197F1F700C0000021973B
:10242000F0CF0F931F93CF93DF93C62FD42F022F9C
:10243000FC0182818823A1F0609323050E94280972
:102440009093220580932105C77081E001C0880F19
:10245000CA95EAF7DF91CF911F910F910C94470A2B
:1024600080912305681335C0809121059091220544
:102470000E941909883C910560F510E21D0FCD17E7
:10248000B9F080E28C0F883040F4C77081E001C061
:10249000880FCA95EAF70E943C0A183048F481E098
:1024A0009D2F977001C0880F9A95EAF70E94470AFE
:1024B000802F0E94F411183098F4D77081E001C089
:1024C000880FDA95EAF7DF91CF911F910F910C9465
:1024D0003C0AC77081E001C0880FCA95EAF7F3CFC4
:1024E000DF91CF911F910F9108958091DF0480FDBE
:1024F0000AC0E4ECF1E0118210821282339652E0BD
:10250000EE3AF507C1F7869A31B33F7B21B32064D9
:102510004FB7F89484EC91E0FC015191CF0168E051
:1025200021BB000000C057FF31BB550F000000C0A9
:1025300000C000C031BB00C06A9591F7F2E08E3A4E
:102540009F0751F74FBF8FE594E00197F1F700C067
:1025500000000895EF92FF921F93CF93DF93EC0159
:1025600084ECE82E81E0F82E10E08C8197014091F8
:10257000E2046091E104810F0E94A40A1D5F83E0E0
:10258000E80EF11C1A3E89F70E9475129A818C811F
:1025900090FF08C08F5F8C83DF91CF911F91FF90D8
:1025A000EF9008958150F7CFBF92CF92DF92EF92D4
:1025B000FF920F931F93CF93DF93FC018281DD2461
:1025C000DA9480FD02C0DD24D39404EC11E0D0E065
:1025D000C0E02EE4B22EF80111821082128294E043
:1025E000E92EF12CC12C8091C1018C0D8F340CF49B
:1025F0003DC06B2D0E947A2B892F082E000C990B61
:102600008C179D0791F48091E2048E9DA0018F9D0F
:10261000500D112455954795559547959801609112
:10262000E1048091E0040E94A40ACD0CF1E0EF1ACD
:10263000F108C9F621960D5F1F4FCE34D10559F62A
:102640000E9475128091C10191E0D91215C08111CB
:1026500011C08DE48093C101DF91CF911F910F9143
:10266000FF90EF90DF90CF90BF90089587FFC5CF88
:10267000825BC3CF8150EECF90E00196BE010E94F5
:102680009C2BE8CF0F931F93CF93DF93C4ECD1E043
:10269000FE01118210821282339682E0EE3AF80730
:1026A000C1F710E000E08091C201082E000C990BE8
:1026B000081719078CF180911001082E000C990B56
:1026C000801791074CF19E014091E2046091E10472
:1026D0008091E0040E94A40A0F5F1F4F23960E34DE
:1026E000110509F70E94751280910F019091C201A6
:1026F000980F9093C20120911001280F2093100190
:10270000121614F49D341CF0819580930F01DF9113
:10271000CF911F910F910895198218821A82DCCFF0
:102720008F929F92AF92BF92CF92DF92EF92FF92E1
:102730000F931F93CF93DF93EC014C81042F10E094
:102740009801D8010E94D12C9B01AC010E949C2CC5
:102750004B015C01E0E2F0E0E01BF10BA5E5B0E02D
:10276000AC019B010E949C2C6B017C019F01DF014D
:102770000E94BD2B9B01AC010E94A72C9B01AC01C8
:10278000280D391D4A1D5B1DC701B6010E94AF2CE3
:10279000F22E822F90E039E23F15D8F143E0249FDA
:1027A0009001112435952795122F109594ECC92E80
:1027B00091E0D92E00E085E5E82EEF188E2D01FD81
:1027C0008F2D9601412F6091E1040E94A40A0F5FB2
:1027D00053E0C50ED11C0E3489F70E9475129C81FE
:1027E00081E0992319F0903219F48FEF8093110151
:1027F00080911101890F8C83DF91CF911F910F91EF
:10280000FF90EF90DF90CF90BF90AF909F908F9010
:10281000089525E530E0A901481B590BCA019A012A
:10282000220F331F280F391F37FFBCCF2F5F3F4FB9
:10283000B9CFEF92FF920F931F93CF93DF938C0149
:10284000C4ECD1E0F12CE12CF80194816091E10419
:102850008091E004F7E2EF16F104FCF49923F9F01B
:102860009E014091E2040E94A40A2FEFE21AF20AAC
:1028700023968EE4E816F10439F70E947512F801E8
:10288000848190E00196817099278483DF91CF91B4
:102890001F910F91FF90EF900895992309F39E01E6
:1028A00040E0E1CF9091DF0490FF0CC0E4ECF1E058
:1028B000818360834283339692E0EE3AF907C1F751
:1028C0000C94751208950F931F93CF93DF9300D04C
:1028D0000F92CDB7DEB78C018091C30181110AC080
:1028E0009E012F5F3F4F44E66FEF0E94A40A8A814A
:1028F0008093C301F8016481613069F08091C30164
:1029000040E0662361F040E0623011F44091C30181
:1029100080E060E004C06091C30140E080E00E947C
:102920005214F801848190E0019663E070E00E9407
:102930009C2B84830F900F900F90DF91CF911F916C
:102940000F910895CF93DF9300D00F92CDB7DEB7EC
:102950009091DF0490FF0AC09E012F5F3F4F0E94BD
:10296000A40A4B8169818A810E9452140F900F90B2
:102970000F90DF91CF910895CF93DF93EC01EC811D
:10298000F0E0E753FD4F4491EFEDF4E06281818187
:102990000E94A2148C818F5F8C83DF91CF91089568
:1029A000CF93DF93EC01EFEDF4E0438162818C8102
:1029B0000E94A2148C818F5F8C83DF91CF91089548
:1029C000AF92BF92CF92DF92EF92FF920F931F933D
:1029D000CF93DF9309E711E0CDEAD4E0C12CD12CED
:1029E000EE24E394F12CF80181918F01F894E82F03
:1029F000E295EF70F0E021A18F70A70102C0440FB3
:102A0000551F8A95E2F7CA01922F982B91A392A1A4
:102A10008095892382A3789400C0EEE7F1E030E04E
:102A200020E0B12CA12C4191A42FA295AF70B0E071
:102A300090968C9190E04F7002C0959587954A953D
:102A4000E2F780FD67C0C701022E02C0880F991F00
:102A50000A94E2F7A82AB92A2F5F3F4F2F30310599
:102A600011F7F801319780810E947F0D54E0C5165F
:102A700019F080EA8A95F1F788819981A816B9063C
:102A800009F44BC0B982A88281E0D82AC394229667
:102A9000E5E0CE12A8CFDD2009F441C081E08093AB
:102AA000C0010E9428099093BF018093BE018091CC
:102AB000BE019091BF010E9419090697A0F1809173
:102AC000AD049091AE049093E5048093E40480916A
:102AD000AF049091B0049093E7048093E604809152
:102AE000B1049091B2049093E9048093E80480913A
:102AF000B3049091B4049093EB048093EA04809122
:102B0000B5049091B6049093ED048093EC04109278
:102B1000C00109C090E080E09DCF80E0B6CF8091F9
:102B2000C0018111C4CF8D2DDF91CF911F910F91E5
:102B3000FF90EF90DF90CF90BF90AF9008954F92AD
:102B40005F926F927F928F929F92AF92BF92CF923D
:102B5000DF92EF92FF920F931F93CF93DF93FC01CD
:102B60006280448081E08483E9ECF2E07490E8E4E0
:102B7000F3E0E491CEEAD2E034ECE32E31E0F32E40
:102B800044E3C42E44E0D42E52E0A52EBB24B394DB
:102B900088248A94912C55245A94E7190E2F10E01A
:102BA00082E0861530F08091E00488838091E10412
:102BB0008983411021C01B821A8297014A81698151
:102BC00088810E94A40A259683E0E80EF11CCC16A9
:102BD000DD0631F7DF91CF911F910F91FF90EF90BC
:102BE000DF90CF90BF90AF909F908F907F906F902D
:102BF0005F904F900C9475128B818823E9F081507F
:102C00008B83859DC00111246C8170E00E94882B0C
:102C1000FB01FF27E753FD4F8491E82FE719E59D5E
:102C2000C0011124B8010E94882B8091E204689FA2
:102C3000B00111247A83C1CF0E94182C2091E204A4
:102C4000269521582A9DA0012B9D500D1124452F1A
:102C50005527841795070CF0B0CF82E0861588F4CD
:102C60000E94182CB4010E949C2B88830E94182C6F
:102C70002091E1042695622F70E00E949C2B280F82
:102C800029831A828091E204893C20F088EC8C83AD
:102C90008B8393CF8431D8F784E1F9CF6BEE7EEF4D
:102CA00090E080E00E94672C60E082E090E00E946B
:102CB000492C60E083E090E00E94492C1092A90426
:102CC0001092AA041092AB041092AC0460E084E06D
:102CD00090E00E94492C60E081E290E00E94492C43
:102CE00060E085E090E00E94492C60E086E090E0A2
:102CF0000E94492C6FEF87E090E00E94492C40E051
:102D000050E0BA0188E090E00E945B2C60E08DE02A
:102D100090E00E94492C40E050E0BA0188E190E048
:102D20000E945B2C60E087E190E00E94492C40E02B
:102D300050E0BA018CE190E00E945B2C60E080E200
:102D400090E00E94492C40E050E0BA0188E190E018
:102D50000E945B2C40E050E0BA018FE090E00E94BE
:102D60005B2C40E050E0BA0183E190E00C945B2CD6
:102D7000CF92DF92EF92FF926B017C010E948E0A4C
:102D8000B701A60188E090E0FF90EF90DF90CF9030
:102D90000C945B2C5F926F927F928F929F92AF9276
:102DA000BF92CF92DF92EF92FF920F931F93CF9338
:102DB000DF9300D00F92CDB7DEB7182F762E042FF9
:102DC000622E9091DF0490FF29C0E92FE695AE2F87
:102DD000B0E0A35EBE4F8C918093DD049E7F923065
:102DE00081F59E012F5F3F4F812F0E94A40A4B81E6
:102DF00069818A810E9452141093E0047092E10468
:102E00000093E204662051F06091DF047091E004C9
:102E10008091E1049091E2040E94B8160F900F9007
:102E20000F90DF91CF911F910F91FF90EF90DF9066
:102E3000CF90BF90AF909F908F907F906F905F905A
:102E40000895823019F40091E204D6CF863019F447
:102E50001091E004D1CF8930D9F3893169F6E95175
:102E60008E2F8170582EE695F0E0EC53FD4FA59023
:102E7000B490BB2484ECE82E81E0F82ED12CC12C38
:102E80009EE4892E912CC601B4010E94882B812FCB
:102E9000511013C0860F9701402F672D0E94A40A7E
:102EA000CA0CDB1C83E0E80EF11C8EEAE81682E017
:102EB000F80649F70E9475129FCF861BECCFEFED05
:102EC000F4E0438128E0421B08F440E021E0628105
:102ED00081810C94CA16EFEDF4E0438128E0420FA3
:102EE00008F44FEF21E0628181810C94CA16EFED66
:102EF000F4E0628128E0621B08F460E021E0438195
:102F000081810C94CA16EFEDF4E0628128E0620F33
:102F100008F46FEF21E0438181810C94CA16EFED34
:102F2000F4E0818121E04381628188500C94CA16CB
:102F3000EFEDF4E0818121E043816281885F0C94B0
:102F4000CA168091E304882319F081508093E3042A
:102F50006091DF047091E0048091E1049091E204BB
:102F60000C94B8168091E304833018F48F5F80933B
:102F7000E3046091DF047091E0048091E10490919A
:102F8000E2040C94B816EFEDF4E083E08083118244
:102F90008FEF828384E683831482608171818281D2
:102FA00093810C94B8161092A70480911C01E0EA5A
:102FB000F1E0882359F08091B70487FF07C08EE1C4
:102FC000DF011D928A95E9F70C94640B86E0F8CF37
:102FD0001F93CF93DF93CDB7DEB7AA970FB6F894C0
:102FE000DEBF0FBECDBF89E195E02091F100DC018D
:102FF0002D93CD01B5E081329B07B9F780911A0579
:10300000833009F471C0B8F4813009F448C08230CB
:1030100009F4B2C08091E80083FF3AC1809119059C
:1030200090911A059A3008F033C1E92FF0E0E05191
:10303000F34D0C94B02B8A3009F48DC08B3009F419
:1030400070C0893039F780911905813219F7809164
:103050001D0590911E05009711F00297D9F68091F9
:10306000E800877F8093E8008091E80082FF37C006
:103070009091F3008091F200029729F48091F10081
:103080008B7F813021F48091F1008093F404809152
:10309000E8008B778093E8000E940308BBCF809103
:1030A0001905813A09F0B6CF8091E800877F8093B7
:1030B000E80080911D0590911E05892B61F460E266
:1030C00085EF94E070E00E94B5088091E8008B776E
:1030D0008093E8009FCF60E090E080E0F3CF8091A4
:1030E00017058111C1CF96CF80911905813A09F05A
:1030F00091CF80911D0590911E05892B09F08ACFF3
:103100008091E800877F8093E8008091E80080FF4D
:10311000FCCF80911C018093F1008091E8008E77B4
:10312000B9CF80911905813209F074CF80911D05C6
:1031300090911E05892B09F06DCF8091E800877F63
:103140008093E8000E94030880911B0580931C0176
:103150000E94D3175FCF80911905813209F05ACFB1
:103160008091E800877F8093E8000E9403088091A7
:103170001C058093F3044ECF80911905813A09F024
:1031800049CF8091E800877F8093E8008091E80034
:1031900080FFFCCF8091F304BECF803899F0823855
:1031A00009F076C080911D058F70873008F070C0DF
:1031B0008093E9008091EB0085FB882780F91092CD
:1031C000E90006C080911505909116059111826065
:1031D0009091E800977F9093E8008093F10010921F
:1031E000F1008091E8008E77B5C1882309F4A2C16F
:1031F000823009F04DC080911B058111A6C18091DC
:103200001D058F702FEF280F263008F041C08093E6
:10321000E9002091EB0020FF98C1933031F48091B8
:10322000EB0080628093EB0090C19091EB00906185
:103230009093EB0021E030E001C0220F8A95EAF77D
:103240002093EA001092EA008091EB008860EACFB8
:1032500081111EC010911B051F778091E3008078BB
:10326000812B8093E3008091E800877F8093E800C2
:103270000E9403088091E80080FFFCCF8091E3006A
:1032800080688093E30082E0111183E0809317054A
:103290008091E80083FF0AC08091E800877F8093D7
:1032A000E8008091EB0080628093EB00AA960FB655
:1032B000F894DEBF0FBECDBFDF91CF911F9108956F
:1032C0008058823028F720911B0530911C052C3D39
:1032D000E3E03E07A1F583E08A838AE289834FB762
:1032E000F894DE01139620E03EE051E2E32FF0E097
:1032F00050935700E49120FF03C0E295EF703F5FC9
:10330000EF708E2F90E0EA30C0F0C7968D939D93BA
:103310002F5F243159F74FBF8091E800877F80935A
:10332000E8006AE270E0CE0101960E94B508809143
:10333000E8008B778093E800ABCFC096E7CF809111
:103340001D0590911E05432F55274330510509F463
:103350004AC078F54130510509F47AC08BE590E018
:10336000EEEEFDE04230510509F092CF2091E800E9
:10337000277F2093E80020911F05309120058217B8
:10338000930708F49C0140E02115310509F065C060
:10339000411163C08091E80082FDC9CF809117057B
:1033A000882329F2853019F28091E80083FFF2CF5B
:1033B000BECF4132510509F43CC04232510509F0FB
:1033C00067CF8330910508F063CFFC01EE0FFF1F3C
:1033D000E057FE4F0190F081E02D83579E4FDC01B6
:1033E0008C9190E01AC0332721303105D1F021159E
:1033F000310561F02230310509F04ACFEBE5FEE0FE
:10340000E4918E2F90E0EBE5FEE007C0EBE7FEE0F5
:10341000E4918E2F90E0EBE7FEE0009709F438CFBF
:10342000A5CFE3E7FEE0E4918E2F90E0E3E7FEE036
:10343000F4CF8330910508F02BCF880F991FFC0142
:10344000EA56FE4F0190F081E02D89E090E08ECFAA
:1034500082E190E0E9E4FEE089CF809117058823BE
:1034600009F465CF853009F462CF8091E80083FDCF
:103470005ECF8091E80082FD8DCF8091E80080FFD3
:1034800083CF9091F3008091F2002115310519F05E
:103490008830910550F041E0089709F040E08091B4
:1034A000E8008E778093E8006FCF44914093F1005D
:1034B0003196215031090196E8CF803809F0E8CEE5
:1034C0008091E800877F8093E800809118058093C1
:1034D000F10087CE8111DCCE10911B05123008F06F
:1034E000D7CE8091E800877F8093E800109318057D
:1034F0000E940308112311F084E005C08091E300CD
:1035000087FDFACF81E08093170542E061EC81E00E
:103510000E94220842E261EC84E00E94220842E21A
:1035200061EC82E00E94220842E260EC83E00E94AB
:103530002208AECE80911B05813009F0A9CE81E032
:10354000933009F080E0809316051092E900809195
:10355000E800877F8093E8000E94030899CE60917D
:10356000DF04669570E04BE050E084E091E00E945B
:10357000282C892B19F481E08093DE040E9428090D
:103580009093C0048093BF0408959091DF0490FF4E
:1035900036C09170811129C092609093DF04662338
:1035A00051F06091DF047091E0048091E10490910A
:1035B000E2040E94B8166091DF04669570E04BE06B
:1035C00050E084E091E00E94282C892BA9F0109211
:1035D000DE0481E08093C20420E04091E204609127
:1035E000E1048091E0040C94CA168B3210F09465CB
:1035F000D4CF880F982BD1CF0E94AF1AEACF08956D
:103600008091DF048695815009F48AE261E00C9490
:10361000C51A8091DF0486958F5F8B3208F081E0B8
:1036200061E00C94C51A9091DF0490FF07C0969555
:10363000981720F0961710F40C94091B61E00C9475
:10364000C51A3F924F925F926F927F928F929F9294
:10365000AF92BF92CF92DF92EF92FF920F931F93A0
:10366000CF93DF9300D000D00F92CDB7DEB78C019F
:10367000FC0183819481892B31F0808191818923A0
:103680008F3F09F03FC60F900F900F900F900F9053
:10369000DF91CF911F910F91FF90EF90DF90CF902E
:1036A000BF90AF909F908F907F906F905F904F9062
:1036B0003F9008950E94AB0FF82E682F89819A8160
:1036C0000E94060A69817A818F2D0E94140E7C0166
:1036D000F8019281992309F408C6970122513F45C8
:1036E0002031310508F0D4C58FEF93E00E94352CCE
:1036F000FEEEEF0E5EE7852E52E0952E882381F1D7
:103700008091A404877009F4BECFF80182818823D8
:1037100009F4B9CF82E00F900F900F900F900F90A7
:10372000DF91CF911F910F91FF90EF90DF90CF909D
:10373000BF90AF909F908F907F906F905F904F90D1
:103740003F900C94CA0B811424E09206C9F2C40184
:103750000E94352C811101C0EA943FEF831A930A2D
:10376000E110F1CF1C821B82442443944AE0342EA2
:1037700074018FEFE81AF80AC4010E94352C89837E
:103780001A82882309F4BCCF9FEF980F933000F57D
:103790008A83498292E0890E911CC7010E94352CD0
:1037A0008B83882309F4ACCFFE0131967F01F701AA
:1037B00020812223E9F2213009F049C091818281E0
:1037C000913041F4F2E0EF0EF11C0E94F41109C0B7
:1037D0004701EACF923049F422E0E20EF11C0E9448
:1037E0003F113FEFE31AF30AE2CF933031F432E0B6
:1037F000E30EF11C0E94860CF4CF943021F08FEF81
:10380000E81AF80AEECF92E0E90EF11C30E020E071
:10381000B7016F5F7F4FF70141818053990B8A3069
:10382000910550F021503109E0F28FE99FE00197B6
:10383000F1F700C00000F6CF329EF001339EF00D8C
:1038400011249C012E0F3F1F842F7B01E1CFE22F1B
:10385000F0E0E75AF24F5490822F86958695869530
:1038600090E0FC01E75BF24F64902770712C022E10
:1038700002C0759467940A94E2F7E1E06E2277241F
:10388000FC01E75CF24FA490B12C022E02C0B5946B
:10389000A7940A94E2F7F1E0AF22BB24FC01E75DB4
:1038A000F24FC490D12C02C0D594C7942A95E2F768
:1038B00021E0C222DD246114710419F081EE0E941E
:1038C0003F11A114B10419F086EE0E943F11852D1D
:1038D0000E94F411AB2819F086EE0E94860C67282E
:1038E00019F081EE0E94860CCD2809F47ACF8CE283
:1038F0006CCF81E00E94E20B0E948B0B01CF81E034
:103900000E94A70BF9CF82E0F5CF85EFE8168CE592
:10391000F80609F46AC008F464C027E245EE66EED2
:10392000F6EFEF16FCE5FF0609F4DBC4992309F472
:10393000FAC41092230522E0E2162CE5F20608F400
:103940004DC136E1E3163CE5F30638F097012A5FF6
:103950003C452930310508F041C10E94E00D9093AB
:10396000B8048093B70480E1E8168CE5F80609F402
:1039700004C108F083C0E8E0EE16ECE5FE0609F4A9
:10398000EEC008F04FC024E0E2162CE5F20609F480
:10399000DEC090F582E0E8168CE5F80609F4D1C0A7
:1039A0008091B704826093E0E9169CE5F90609F47A
:1039B000CBC06091B704F090B80484E090E00E941E
:1039C000492C6F2D81E290E00E94492C0E94D31770
:1039D00097CE27E245EE65EE84C426E241EE60EE26
:1039E00080C427E245EE64EE7CC426E241EE62EE3E
:1039F00078C428E241E0EFCF8091B7048061E6E02F
:103A0000EE16ECE5FE0609F49FC08091B7048860CD
:103A1000F7E0EF16FCE5FF0608F496C08091B704C6
:103A2000806292C08091B7048D7F2CE0E2162CE575
:103A3000F20609F489C060F48AE0E8168CE5F8061D
:103A400009F497C008F48FC08091B7048E7F7CC0C2
:103A50008091B704877FEEE0EE16ECE5FE0609F4F0
:103A600073C08091B7048B7FFFE0EF16FCE5FF0683
:103A700008F46AC08091B7048F7E66C02BEFE2160F
:103A80002CE5F20609F467C068F583E1E8168CE5D9
:103A9000F80609F47AC090F4E1E1EE16ECE5FE06D2
:103AA00009F46FC0F2E1EF16FCE5FF0609F081CFE3
:103AB0000E94D3178091B7048F7746C025E1E216A4
:103AC0002CE5F20609F469C008F47DC08AEFE81617
:103AD0008CE5F80609F06DCF8091B8048160809381
:103AE000B80467CF9FEFE9169CE5F90609F451C0C9
:103AF000A0F48091B8048D7FFDEFEF16FCE5FF0682
:103B000071F38091B8048E7F2EEFE2162CE5F20659
:103B100030F38091B8048360E2CF31E0E3163DE5F5
:103B2000F30609F459C008F444C060E092E0E916D5
:103B30009DE5F90609F03DCF8EE090E00E94492C0A
:103B400038CF8091B70481608093B70432CF8091E1
:103B5000B7048460F9CF8091B8048260C0CF8091AF
:103B6000B7048064F1CF0E94D3178091B7048068B6
:103B7000EBCF8091B7048C60E7CF8091B7048F7D45
:103B8000E3CF8091B7048F7BDFCF8091B704837F31
:103B9000DBCF8091B8048C7FA2CF8091B70482FBE9
:103BA000992790F921E0922790FB82F990FB83F905
:103BB000CBCF8091B804982F909591708E7F892BF0
:103BC00090FB81F98CCF0E94D3179091B704892F75
:103BD00097FB87F98058B8CF61E0AECF8091A704FA
:103BE000E6E1EE16ECE5FE0609F0ABC38A7A91E059
:103BF00009F490E090933804811106C089E20E9494
:103C0000AA090E943A097CCD85E3F9CF85E396C3E2
:103C10008091DF0480FF1BC08E7F8093DF04609162
:103C2000DF047091E0048091E1049091E2040E942D
:103C3000B8161092DE04FFEF20E732E0F15020408A
:103C40003040E1F700C000000E94751259CD81603C
:103C50008093DF0461E086950E94C51A51CD40E053
:103C60005BE169E07BE10E94890A4ACD49E05BE1C2
:103C700060E07BE1F8CF4FE857E168E977E1F3CF07
:103C800048E957E16FE877E1EECF47E757E163E8AE
:103C900077E1E9CF43E857E167E777E1E4CF4FE524
:103CA00057E16BE677E1DFCF4BE657E16FE577E170
:103CB000DACF41EA57E162EB77E1D5CF42EB57E14A
:103CC00061EA77E1D0CF61E081E0C6CF65E082E0D4
:103CD0000E94131B15CD68E086E0FACF6EE089E004
:103CE000F7CF64E18FE0F4CF67E185E1F1CF61E0E8
:103CF00088E1B2CF62E289E1EBCF61E083E2ACCF51
:103D0000E1148CE5F80609F447C0EEEDEE16ECE59B
:103D1000FE0609F44EC0F801E080F180992309F411
:103D20004BC0C7010E94AB0FD82E682FC7010E945D
:103D3000060AB7018D2D0E94210E7C01882EF80104
:103D4000D280A580A2943FE0A3228091A404877032
:103D5000A1F0CD2CDD2091F08F2D807F803421F0DB
:103D600080E28E0D883048F082E00E94CA0B80917C
:103D7000A4048770CC24C3948111C12C3F2C3294AD
:103D80002FE03222FBE0F31508F452C0E32DF0E0FF
:103D9000E650F34D0C94B02B0E94D317FFEF24E3B1
:103DA0003CE0F15020403040E1F700C000000E94AC
:103DB0001B110E944E16A4CCC7010E94DE09D82E0A
:103DC000B8CF2F2D2F70A22E8F2D807F19F0A294A7
:103DD00090EFA922DD20C9F0AA2069F080E28E0DC3
:103DE000883010F081100BC08091A704A82AA092FF
:103DF000A7040E943A098E2D0E943F1119C080919C
:103E0000A604A82AA092A604F4CF8E2D0E94860CA8
:103E1000AA2071F0A09480E28E0D883010F08110FD
:103E20003FC08091A704A822A092A7040E943A094B
:103E3000232D2850330B2430310520F40E947D0AB5
:103E40000E94D90DCC2009F41ECC8091A40480FDE1
:103E50001ACCF80112828595859585950E94E20B12
:103E6000C8010E94211B8091A404859585958595A4
:103E70000F900F900F900F900F90DF91CF911F91A7
:103E80000F91FF90EF90DF90CF90BF90AF909F90F9
:103E90008F907F906F905F904F903F900C94A70B06
:103EA0008091A604A822A092A604C0CF3F2D3F7007
:103EB000932E8F2D807F803219F0929480EF98227C
:103EC000882071F081E0881661F1DD20B9F1AA2027
:103ED00071F1F801858180FF8ECF8F70858327C0B7
:103EE000DD2091F09091A804892D892BA11003C0A9
:103EF0000E94470A9DCFE1E0AE12FACF981709F46D
:103F000097CF8093A80494CFA11006C00E943409D3
:103F1000892D0E943C0A8CCFF1E0AF1609F488CFBE
:103F2000F5CFDD2031F025E02A1508F481CF892D69
:103F3000DFCF34E03A1508F47BCFEACFAA2041F373
:103F4000F9E38F1209C02FEF37EE83E021503040A4
:103F50008040E1F700C000008E2D0E94860C68CFE3
:103F60008F2D86958695837061F0813009F060CF42
:103F7000C7019370D11002C090E080E00E94510A06
:103F800057CFC7019370D11002C090E080E00E942B
:103F9000670A4ECF8E2DDD2029F00E94250D0E944C
:103FA0003D0B46CF0E940D0CFACF8F2D837009F088
:103FB00066C0D1103DCF8E2D829586958770880F73
:103FC000880F6E2D6F70462E512C712C612C082E8F
:103FD00004C0440C551C661C771C0A94D2F740E0C0
:103FE00050E0BA01E4FE0FC04FE050E060E070E046
:103FF00004C0440F551F661F771F8A95D2F740955E
:104000005095609570958F2D86958695837082303A
:1040100019F1D8F48090A9049090AA04A090AB0460
:10402000B090AC04813069F044295529662977297C
:10403000CB01BA01682179218A219B210E94030CBE
:10404000F7CE482859286A287B28CB01BA01642971
:10405000752986299729F2CF442955296629772978
:104060004090A9045090AA046090AB047090AC04F6
:10407000CB01BA016425752586259725DFCF869566
:10408000DD2011F08F2D8170882309F4D1CE8E2D83
:10409000829586958770880F880F6E2D6F70462EDB
:1040A000512C712C612C082E04C0440C551C661C2C
:1040B000771C0A94D2F740E050E0BA01E4FE0FC04A
:1040C0004FE050E060E070E004C0440F551F661FF1
:1040D000771F8A95D2F740955095609570958F2DF2
:1040E000869586958370823019F1D8F480902405E6
:1040F00090902505A0902605B0902705813069F0A5
:104100004429552966297729CB01BA0168217921EB
:104110008A219B210E94810B8BCE482859286A282E
:104120007B28CB01BA016429752986299729F2CF0A
:104130004429552966297729409024055090250562
:104140006090260570902705CB01BA01642575257E
:1041500086259725DFCF9F2D9F70F92EDD2029F032
:10416000892F0E94E20B8E2DC3CE8E2D0E943C0A19
:104170008F2D0E94A70B5CCE8E2DE2EF8E1609F4D8
:1041800053C0E81578F0F0EF8F1629F121EF821671
:1041900009F442C0DD2009F46BC0A1102CCE8F2D94
:1041A0008F713FC033EF831609F443C094EF891237
:1041B000F1CFDD2009F451C02F2D2F71F22E822F67
:1041C0000E94E20B38E0F39EC001112483608093CB
:1041D000A4048F2D26C0DD20D1F0E4E0EA1508F418
:1041E00027CE2F2D2F7161E070E080E090E004C0B9
:1041F000660F771F881F991F2A95D2F740902405D4
:104200005090250560902605709027059FCFF5E01A
:10421000FA1508F40DCEE5CF8F2D8F71DD2009F44E
:10422000A8CF0E94E20B04CE8F2D8F71DD20C9F341
:10423000A0CF60E070E0CB01DD2009F46BCF2F2D23
:104240002F7161E070E080E090E004C0660F771F9E
:10425000881F991F2A95D2F75DCF81E00E94CA0B73
:1042600081E08A1508F0E4CD82E00E94CA0BE0CD1F
:10427000AA2059F0893309F06FCE9FEFE7EEF3E003
:104280009150E040F040E1F765CE8F2D8F7171CFF6
:10429000F0E1EF16FFE5FF0609F42BCB21E1E21672
:1042A0002FE5F20609F42FCB83EFE8168CE5F8062C
:1042B00009F493CB08F029CBF8EDEF16FCE5FF06E7
:1042C00009F487CB29EDE2162CE5F20609F491CB2F
:1042D00037EDE3163CE5F30609F028CB26E241EE84
:1042E00061EEC8010E9411120BCA30E1E3163FE5EE
:1042F000F30609F404CB81E1E8168FE5F806A1F690
:1043000082E0FECA85E0DE01119601900D928A9549
:10431000E1F7F801228189819A812111CBC90E949C
:10432000DE09F82ECFC9F6E1EF16FCE5FF0609F02D
:10433000F2CC80913804811169CC89E20E947F0916
:1043400060CC8272F701E25CFC45E431F10508F0D3
:10435000D7CCEA5FF24D0C94B02B1F93CF93DF9331
:1043600080913F04807FA9F480913C04882389F0E8
:1043700080917104D091400460913A0470913B04A3
:10438000A0913D04B0913E04C62FC72316E0D81378
:1043900004C0DF91CF911F91089590E0109711F024
:1043A000CF3F19F401968770F2CF189F9001199FA3
:1043B000300D1124F901EF5BFB4F41814713F2CF20
:1043C00040814613EFCF42814111ECCF43815481AC
:1043D0004A1B5B0B483C510528F780913F048F70C6
:1043E000806180933F04F901EA5BFB4F80818F700D
:1043F000806180838AE394E00E94211BDF91CF914A
:104400001F910C94320AAF92BF92CF92DF92EF923B
:10441000FF920F931F93CF93DF93CDB7DEB76197D2
:104420000FB6F894DEBF0FBECDBF8C0185E0F8015A
:10443000DE011D9601900D928A95E1F7F8018081C9
:104440009181E2802AE3A22E24E0B22E60913D0405
:1044500070913E046115710509F43EC130913A0432
:1044600040913B04232F24232F3F09F435C1C380FF
:10447000D480F0903C04F601E61BF70BFF2009F412
:10448000FBC020913F04522F507FE83CF10508F01B
:10449000BBC0511178C0FE2C491321C038131FC076
:1044A000E1101DC02F70206120933F04C5010E94C0
:1044B000211B80913F04F80185838F2D61960FB6F3
:1044C000F894DEBF0FBECDBFDF91CF911F910F914A
:1044D000FF90EF90DF90CF90BF90AF900895CD28E0
:1044E00029F0282F29232F3F09F014C120E0F22FB3
:1044F000F170DF2E20FF3DC02091710440914004F7
:1045000056E0241315C08D879E878D859E850E9459
:10451000ED0F292F22952F702230F8F0243020F54E
:104520009F70F9F0F8019581907FD9F4D12C1FC0CC
:1045300030E0529FF001539FF00D1124EF5BFB4FD1
:104540006181961306C06081861303C06281E61202
:1045500010C02F5F3F4F2770D4CF9F7011F088237A
:1045600029F3805E883010F3C8010E94211BFD2CC6
:10457000A4CFEE2009F4A1CF80913F048160809305
:104580003F04F12C9ACF491312C0381310C0E11028
:104590000EC0F8012583C8010E94211B86E0F801A6
:1045A000AAE3B4E001900D928A95E1F786CF8D875A
:1045B0009E878D859E850E94F70F882309F1EE2046
:1045C000F9F080913F04803270F020913A043091EC
:1045D0003B0438872F831986DB86CA868C87CE01F9
:1045E00007960E94211B86E0F801AAE3B4E001903F
:1045F0000D928A95E1F70E94AD21FF24F3945DCFDF
:10460000C8010E94211BF9CF51110AC08AE394E02E
:104610000E94211B86E0F50111928A95E9F7B1CF3E
:1046200049130FC038130DC0E1100BC0F8012583EA
:10463000C8010E94211B86E0F50111928A95E9F7D5
:104640003CCF8D879E878D859E850E94F70F88239E
:10465000B9F2EE20A9F280913F04803220F220913D
:104660003A0430913B043A8329831B82DD82CC8259
:104670008E83CE010196B5CFE83CF105E0F6FE2C25
:10468000EE2009F4BDCF491316C0381314C0809131
:104690003F0480FD83CF982F907F09F47FCFF801EE
:1046A0008583903F09F477CF982F907F905F8F702C
:1046B000892B858370CF8D879E878D859E850E94EF
:1046C000F70F811190CF80913F04816080933F0468
:1046D000C8010E94211BF1CEEE2009F491CF8D87F5
:1046E0009E878D859E850E94F70FF82E882309F4FA
:1046F00087CF86E0F801AAE3B4E001900D928A9595
:10470000E1F780913A0490913B040E94ED0F0E94E2
:10471000AD21D3CE21E02E25EACE1F93CF93DF9398
:10472000CDB7DEB767970FB6F894DEBF0FBECDBF2B
:10473000342F4B8B252F5C8B6D8B7E8B8F8B8E89D3
:104740009F8961111092A6041A8A198A3D872E87C3
:104750006F87998B888B86E0FE013D96DE01179668
:1047600001900D928A95E1F7CE0107960E940322EF
:10477000882389F016E08091710490914004891398
:1047800049C067960FB6F894DEBF0FBECDBFDF916C
:10479000CF911F91089586E0FE013796DE011196B4
:1047A00001900D928A95E1F78A859B85892B11F3FB
:1047B0008F81988589238F3FE9F22091400430E072
:1047C000C90101968770992740917104481719060D
:1047D00071F40E94D317109240041092710486E085
:1047E000EAE3F4E0DF011D928A95E9F7C3CF96E092
:1047F000929FD001939FB00D1124AF5BBB4FFE0180
:10480000319601900D929A95E1F7809340040E94B1
:10481000320AB0CF819FC00111248F5B9B4F0E9451
:104820000322882309F4ADCF8091710490E00196B2
:1048300087709927809371049ECF1F920F920FB6B5
:104840000F9211242F933F934F935F936F937F9316
:104850008F939F93AF93BF93CF93DF93EF93FF9388
:10486000D091E900DF708091EC00C82FC17080FD0D
:10487000C0E81092E9008091F000877F8093F000FB
:1048800078940E94E8171092E9008091F000886007
:104890008093F000CD2BCF70C093E900FF91EF9192
:1048A000DF91CF91BF91AF919F918F917F916F9148
:1048B0005F914F913F912F910F900FBE0F901F90DE
:1048C00018951F920F920FB60F9211242F933F93BA
:1048D0004F935F936F937F938F939F93AF93BF9308
:1048E000EF93FF938091E10082FF09C08091E20085
:1048F00082FF05C08091E1008B7F8093E100809171
:10490000DA0080FF24C08091D80080FF20C0809111
:10491000DA008E7F8093DA008091D90080FF9BC0FF
:1049200080E189BD82E189BD09B400FEFDCF81E04F
:10493000809317058091F204811109C00E948907B4
:104940000E9454088091E20084608093E20080918C
:10495000E10080FF17C08091E20080FF13C08091CA
:10496000E2008E7F8093E2008091E200806180937C
:10497000E2008091D80080628093D80019BC85E065
:10498000809317058091E10084FF29C08091E200A7
:1049900084FF25C080E189BD82E189BD89B5982F5A
:1049A000917080FFFBCF8091D8008F7D8093D800DD
:1049B0008091E1008F7E8093E1008091E2008F7E04
:1049C0008093E2008091E20081608093E200809118
:1049D0001805882309F445C084E080931705809169
:1049E000E10083FF27C08091E20083FF23C0809114
:1049F000E100877F8093E10082E0809317051092A9
:104A000018058091E1008E7F8093E1008091E200A3
:104A10008E7F8093E2008091E20080618093E200CB
:104A200042E060E080E00E9422088091F00088600F
:104A30008093F000FF91EF91BF91AF919F918F9183
:104A40007F916F915F914F913F912F910F900FBE8A
:104A50000F901F90189519BC109217051092F20430
:104A600076CF8091E30087FD93E090931705B7CF51
:104A7000CDB7DEB7AA970FB6F894DEBF0FBECDBF95
:104A800084B7877F84BF0FB6F894A89580916000A3
:104A9000886180936000109260000FBE80E890E013
:104AA0000FB6F89480936100909361000FBE85B7B4
:104AB000806885BF85B7806885BF84E199E0909361
:104AC0009D0180939C010E9489070E945408809157
:104AD000E20084608093E200789480911705882337
:104AE000A1F01091E9001F709091EC00892F817066
:104AF00090FD80E8182B1092E9008091E80083FD7A
:104B00000E94E8171F701093E90082E084BD93E0D3
:104B100095BD9AEF97BD80936E0080E90E947F0D4E
:104B200081E90E947F0D82E90E947F0D83E90E9446
:104B30007F0D85E90E947F0D0EE711E07DE8E72EED
:104B400071E0F72EF80181918F010E947F0DE01630
:104B5000F106C1F71092AE041092AD041092E50474
:104B60001092E4041092B0041092AF041092E70483
:104B70001092E6041092B2041092B1041092E9046B
:104B80001092E8041092B4041092B3041092EB0453
:104B90001092EA041092B6041092B5041092ED043B
:104BA0001092EC040E94E0148FE39CE90197F1F766
:104BB00000C000000E94E0148091E40480FF17C050
:104BC0006FEF82E290E00E94492C6FEF83E290E069
:104BD0000E94492C6FEF84E290E00E94492C6FEF15
:104BE0007FEF90E080E00E94672C0E941B1190E014
:104BF00080E00E94432C8B3E9E4F11F00E944E1687
:104C000082E290E00E94352C813209F0F0C483E208
:104C100090E00E94352C843009F0E9C484E290E0F1
:104C20000E94352C833109F0E2C490E080E00E94BC
:104C3000432C8B3E9E4F11F00E944E1682E090E076
:104C40000E94352C8093D2040E94E00D9093B8040A
:104C50008093B70483E090E00E94352C682F70E0C9
:104C600090E080E00E94030C8091B904811136C06D
:104C700090E080E00E94432C8B3E9E4F21F00E94EA
:104C80004E160E94C31788E090E00E943D2C60936E
:104C9000DF047093E0048093E1049093E2046E7F5C
:104CA00071F40E94C31788E090E00E943D2C60934D
:104CB000DF047093E0048093E1049093E2040E9487
:104CC0008E0A1092DE048091DF0480FF04C060E051
:104CD00086950E94C51A81E08093B90482E191E033
:104CE0009093BB048093BA0458E1E52EF12C60E464
:104CF000762EDD24D394CC24C3948091170500E153
:104D000012E1853009F4DCC10E94E014882359F0D7
:104D10008FB7F8944091EE045091EF046091F00445
:104D20007091F1048FBFA4EEB4E0E3EDF4E010E085
:104D300000E0702F8D919D912191319128173907B5
:104D400009F4E1C12827392760E0AA24A394B12CF3
:104D5000A9014A215B21452B09F4CFC169A37AA39C
:104D60009C012A213B2191E0232B09F490E09BA395
:104D70000E9428098160782F9DA38CA349A15AA184
:104D80006BA18DA10E948D23000F111FF801ED5220
:104D9000FB4F80819181A826B926B182A0828091A3
:104DA000DE048823D1F18091DD04E091DF04E695F3
:104DB000E81BE093C104823009F0BCC1F0E0E65189
:104DC000F24FE4910E2F10E08CEBA82E84E1B82E68
:104DD0008091C204882361F01092C2040E942809C5
:104DE0009093C0048093BF041092C4041092C30433
:104DF0000E942809E091BF04F091C0048E1B9F0B14
:104E00008F3F9F4750F4E00FF11FF093C004E093F1
:104E1000BF048FEB94E0F501099586E0EBECF4E03C
:104E2000DE01119601900D928A95E1F7B090CD04C4
:104E3000A090CE041091CF040091D0041092CD0424
:104E40001092CE041092CF041092D0048B2D8A2998
:104E500009F448C08091C9049091CA040E941909BC
:104E60009C019091C804992309F4E8C323333105C8
:104E7000C8F19F3F19F09F5F9093C804BB2059F081
:104E80000E94050D9FEF1B140CF491E0899F802D6B
:104E900011248093CD04AA2059F00E94050D9FEFA4
:104EA0001A140CF491E0899F802D11248093CE0474
:104EB0003091CD043323B1F02091CE04222391F020
:104EC00045EB3403C0011124992309F49FC1909349
:104ED000CD0445EB240390011124332309F499C137
:104EE0003093CE04812F802B09F448C08091C604F2
:104EF0009091C7040E9419099C019091C5049923BF
:104F000009F497C325363105C8F19F3F19F09F5F1B
:104F10009093C504112359F00E94E30C9FEF1116E2
:104F20000CF491E0899F802D11248093CF040023FD
:104F300059F00E94E30C9FEF10160CF491E0899F4A
:104F4000802D11248093D0043091CF043323B1F00D
:104F50002091D004222391F045EB3403C0011124A9
:104F6000992309F459C19093CF0445EB2403900190
:104F70001124332309F453C13093D0048091CD041C
:104F80009091CE04892B9091CF04892B9091D004DD
:104F9000892B11F00E943D0B86E0FE013196ABECAF
:104FA000B4E001900D928A95E1F70E947D0A9091FC
:104FB000D104891731F00E947D0A8093D1040E94A8
:104FC000D90D80911705843009F097CE83E0809346
:104FD000E9008091E80082FF90CE8091E80090E0A7
:104FE00085FF06C00E94A807882309F41BC191E031
:104FF0008091E8008B778093E800992309F47DCEB7
:10500000E981E150E33108F0AAC1F0E0E65EF24D3B
:105010000C94B02B80911705843009F440C080E0D7
:105020000E94D90D1092DE048091BE04811116C039
:10503000C092BE048091DF04982F91709093BD04BC
:105040008E7F8093DF044FEF80E792E041508040F5
:105050009040E1F700C000000E9475121092BC045D
:105060000FB6F894A895E09260000FBE70926000B1
:1050700083B7817F846083BF83B7816083BF789467
:10508000889583B78E7F83BF0FB6F894A8958091DB
:105090006000886180936000109260000FBE809174
:1050A0001605882369F00E94E014E4EEF4E0819193
:1050B0009191892B09F085C224E0EE3EF207B9F701
:1050C00080911705853009F4A5CF0E94D3170E945F
:1050D0007D0A0E94D90D1092BE048091BD048823E0
:1050E00049F08091DF0481608093DF0460E0869561
:1050F0000E94C51A0E94AF1A07CE6F5FAA0CBB1C94
:105100006F3009F025CE0F5F1F4F0530110509F0F4
:1051100010CE8FEF8EA38FA318A60E94280981605E
:10512000782F9AA789A74EA15FA168A58AA50E949A
:105130008D2335CE863059F4F0E0E951F24FE491F9
:105140000E2F10E0B0EDAB2EB4E1BB2E41CE893076
:1051500061F4E695F0E0EC51F24FE4910E2F10E08F
:10516000AAEAAA2EA2E1BA2E33CE8F3061F4E695D8
:10517000F0E0EF51F24FE4910E2F10E0F4EDAF2E7E
:10518000F2E1BF2E25CE853159F4F0E0E252F24F24
:10519000E4910E2F10E0E2E4AE2EE3E1BE2E18CE35
:1051A00008E210E050E9A52E53E1B52E883109F44C
:1051B0000FCE833249F4ECEDFDE00591149173E6D6
:1051C000A72E74E1B72E04CE04EF11E049E1A42E1E
:1051D00044E1B42E843209F4FBCD00ED17E033E155
:1051E000A32E39E0B32E853209F0F2CD8E2F63E085
:1051F0000E946E2BE92FF0E0E752F24FE4910E2F60
:1052000010E06FE9A62E65E1B62EE2CDD092CD0476
:1052100060CED092CE0466CED092CF04A6CED092ED
:10522000D004ACCE00E210E0CE0101965C0180918A
:10523000E80085FD0AC08091E8008B778093E80044
:105240000E94A807882399F3D2CE8091F100F5013E
:1052500081935F010150110951F7C9CE1A8289E08B
:105260008B831AC08A81823009F4DAC18330D9F184
:10527000813009F074C02FB7F8946091EE047091FA
:10528000EF048091F0049091F1042FBF0E94B62B9F
:105290006B837C838D839E8380911705843009F016
:1052A0002CCD1091E9001F709091EC00892F817036
:1052B00090FD80E8182B82E08093E9008091E8005F
:1052C00080FF0DC050E040E060E270E0CE0101964A
:1052D0000E94D9078091E8008E778093E8001F70C4
:1052E0001093E9000ACD8091E4049091E504982799
:1052F000892798279C838B838091E6049091E7040B
:105300009827892798279E838D838091E804909120
:10531000E90498278927982798878F838091EA0442
:105320009091EB049827892798279A8789878091FD
:10533000EC049091ED049827892798279C878B8708
:10534000ABCF8A81823059F46B817C818D819E81C3
:105350000E94B62B85E290E00E94492C9DCF8FEFF2
:1053600089839ACF4C816B818A810E94EE0D9827A8
:10537000892798279E838D838FCFAD80BE80BA24E6
:10538000AB24BA248A810B81FEE10F9F8001112496
:1053900026E9829F000D111D11248C8190E0880F59
:1053A000991F080F191F6B2DC80186960E94492C62
:1053B0006A2DC8018796D0CF0E941B106DCF8A81BD
:1053C0008138C1F060F4803809F066CF20E04B816D
:1053D0006091E1048091E0040E94CA165DCF82389A
:1053E00059F1833809F058CF20E04091E2046C81F4
:1053F0008B81F2CF60E08B810E94C51A9B818091E6
:10540000DF04911111C08E7F8093DF041092DE04BF
:105410004FEF80E792E0415080409040E1F700C0BC
:1054200000000E94751238CF81608093DF0460E035
:1054300086950E94C51A30CF8B818093E3042CCFD0
:105440008A81813899F030F4803809F025CF809135
:10545000E20406CF823891F0833809F01DCF8091A5
:10546000E0048B838091E1048C8316CF8091DF046C
:1054700080FF02C08695F4CE80E0F2CE8091E304F6
:10548000EFCE6091DF047091E0048091E10490918F
:10549000E2040E94B81600CF80E18A83FDCEDA8252
:1054A00082E8DECE0A811B81102701271027FE012A
:1054B00031965F018C80CF01880D911D4C01C80190
:1054C00082589D4F8A149B0409F4E6CE0238E1E02D
:1054D0001E0750F40E94352CF50184830F5F1F4F87
:1054E000FFEFAF1ABF0AEBCFF5011482F7CF0A81A5
:1054F0001B81102701271027CE0101964C01AC809B
:10550000A00EB12EB11CC80182589D4FA016B10645
:1055100009F4C2CE0238E1E01E0720F4F4016481F0
:105520000E94492CFFEF8F1A9F0A0F5F1F4FEBCF8E
:105530000E947010B1CE84E0B0CF0A811B81102789
:1055400001271027CE0101965C018C80FC01E80D3B
:10555000F11D4F01C8018696A814B90409F49CCE28
:105560000835F2E01F0750F40E94352CF5018483C2
:105570000F5F1F4FFFEFAF1ABF0AECCFF501148288
:10558000F7CF0A811B81102701271027CE01019632
:105590004C01AC80A00EB12EB11CC80186960A1534
:1055A0001B0509F479CE0835E2E01E0720F4F4016A
:1055B00064810E94492CFFEF8F1A9F0A0F5F1F4FD3
:1055C000ECCF09BD19BD09B400FEFDCF8091D80014
:1055D0008F7D8093D8008091E00082608093E0000E
:1055E0008091E00081FDFCCF0E94D31769CD60E07F
:1055F00085E290E00E94492C0E941B100E947010CE
:1056000061E282E290E00E94492C64E083E290E053
:105610000E94492C63E184E290E00E94492C05CB72
:1056200085E290E00E94352C1B821C821D828E83B5
:1056300033CE2D32314008F06ACCA0CC2D3231402F
:1056400008F019CC4FCC78941F921FB61F921124EA
:105650008F939F93AF93BF938091EE049091EF044B
:10566000A091F004B091F1040196A11DB11D8093A9
:10567000EE049093EF04A093F004B093F104BF9173
:10568000AF919F918F911F901FBE1F9018951F92F1
:105690001FB61F9211248F939F93AF93BF93809156
:1056A000BC04811113C08091EE049091EF04A0918D
:1056B000F004B091F1044196A11DB11D8093EE0458
:1056C0009093EF04A093F004B093F104BF91AF91D5
:1056D0009F918F911F901FBE1F901895991B79E085
:1056E00004C0991F961708F0961B881F7A95C9F772
:1056F0008095089587FB082E062687FD819567FD16
:1057000061950E946E2B0EF4919507FC819508958A
:10571000AA1BBB1B51E107C0AA1FBB1FA617B707D7
:1057200010F0A61BB70B881F991F5A95A9F78095F3
:105730009095BC01CD01089597FB072E16F40094B7
:1057400007D077FD09D00E94882B07FC05D03EF4D6
:10575000909581959F4F0895709561957F4F08951D
:10576000EE0FFF1F0590F491E02D0994692796270D
:10577000692778278727782708950E94D12C33231B
:1057800012F48A1B9B0B0C94C72B0E94D12CB7FFE1
:105790000895821B930B08958F929F92AF92BF92B0
:1057A000CF92DF92EF92FF92CF93DF93EC0168816B
:1057B00079818A819B81611571058105910521F4AB
:1057C00064E279ED8BE597E02DE133EF41E050E0C5
:1057D0000E947D2C49015A019B01AC01A7EAB1E46A
:1057E0000E949C2C6B017C01ACEEB4EFA5019401EE
:1057F0000E94AA2CDC01CB018C0D9D1DAE1DBF1D8E
:10580000B7FF03C00197A109B04888839983AA8391
:10581000BB839F77DF91CF91FF90EF90DF90CF9088
:10582000BF90AF909F908F9008950E94CC2B0895C9
:1058300080E091E00E94CC2B0895B0E0A0E080933E
:10584000000190930101A0930201B0930301089518
:10585000FC014150504030F001900616D1F73197CD
:10586000CF010895882799270895F999FECF92BD11
:1058700081BDF89A992780B50895A6E1B0E044E08B
:1058800050E00C946F2CA8E1B0E042E050E00C94A2
:105890006F2C262FF999FECF92BD81BDF89A019702
:1058A00000B4021639F01FBA20BD0FB6F894FA9A68
:1058B000F99A0FBE08950396272F0E944A2C0E9442
:1058C000492C252F0E944A2C242F0C944A2C0196F7
:1058D000272F0E944A2C0C94492CDC01CB01FC019F
:1058E000F999FECF06C0F2BDE1BDF89A319600B439
:1058F0000D9241505040B8F70895052E97FB1EF4C5
:1059000000940E94942C57FD07D00E94AF2C07FCF6
:1059100003D04EF40C94942C5095409530952195DD
:105920003F4F4F4F5F4F08959095809570956195CB
:105930007F4F8F4F9F4F08950E94D12CA59F900DB0
:10594000B49F900DA49F800D911D11240895B7FF61
:105950000C949C2C0E949C2C821B930B0895A1E21A
:105960001A2EAA1BBB1BFD010DC0AA1FBB1FEE1FD9
:10597000FF1FA217B307E407F50720F0A21BB30B24
:10598000E40BF50B661F771F881F991F1A9469F7A0
:1059900060957095809590959B01AC01BD01CF01FC
:1059A0000895A29FB001B39FC001A39F700D811DF8
:1059B0001124911DB29F700D811D1124911D089518
:1059C000F894FFCF061006100F100F1011100F10D3
:1059D0000F100F100610061016100F100F101610D3
:1059E000CD18F5184819F5184819281960194819DB
:1059F0005D1A6A1AE11EE11E561F561FB01FCA1F0C
:105A0000181F181FD51FAB20BC20BC20081E2F1E3E
:105A1000361E3B1E401E451E4A1E4F1E541E591E5A
:105A20005E1E631E661E6B1E6E1E711E741E771E2A
:105A30007A1E7D1E2E293229A129B229BD29DC29F1
:105A4000DF29202A412AAF29AF294C2A4F2A522A7E
:0A5A5000772A982A9B2A9D2AC12A72
:105A5A000100000001191A1B1C1D1E1F2021220112
:105A6A0002011609DB10BA10B610B21001000102C9
:105A7A000202020606060909090909090F0F0F0F92
:105A8A000F0F15151518191919191919191919199D
:105A9A002324252525252525818283E200E900EA9C
:105AAA0000B500B600B700CD008301CC008A019290
:105ABA000194012102230224022502260227022A36
:105ACA0002B300B4006F0070009091929395F0F1C8
